{
  "contractName": "Escrow",
  "abi": [
    {
      "constant": false,
      "inputs": [],
      "name": "destroy",
      "outputs": [],
      "payable": false,
      "stateMutability": "nonpayable",
      "type": "function"
    },
    {
      "constant": true,
      "inputs": [],
      "name": "owner",
      "outputs": [
        {
          "name": "",
          "type": "address"
        }
      ],
      "payable": false,
      "stateMutability": "view",
      "type": "function"
    },
    {
      "constant": false,
      "inputs": [
        {
          "name": "_recipient",
          "type": "address"
        }
      ],
      "name": "destroyAndSend",
      "outputs": [],
      "payable": false,
      "stateMutability": "nonpayable",
      "type": "function"
    },
    {
      "inputs": [],
      "payable": false,
      "stateMutability": "nonpayable",
      "type": "constructor"
    },
    {
      "payable": true,
      "stateMutability": "payable",
      "type": "fallback"
    },
    {
      "anonymous": false,
      "inputs": [
        {
          "indexed": false,
          "name": "sender",
          "type": "address"
        },
        {
          "indexed": false,
          "name": "amount",
          "type": "uint256"
        }
      ],
      "name": "LogReceivedFunds",
      "type": "event"
    },
    {
      "anonymous": false,
      "inputs": [
        {
          "indexed": false,
          "name": "recipient",
          "type": "address"
        },
        {
          "indexed": false,
          "name": "amount",
          "type": "uint256"
        }
      ],
      "name": "LogReturnedFunds",
      "type": "event"
    },
    {
      "constant": true,
      "inputs": [],
      "name": "getBalance",
      "outputs": [
        {
          "name": "",
          "type": "uint256"
        }
      ],
      "payable": false,
      "stateMutability": "view",
      "type": "function"
    },
    {
      "constant": false,
      "inputs": [],
      "name": "refundBalance",
      "outputs": [],
      "payable": false,
      "stateMutability": "nonpayable",
      "type": "function"
    }
  ],
  "bytecode": "0x608060405234801561001057600080fd5b50336000806101000a81548173ffffffffffffffffffffffffffffffffffffffff021916908373ffffffffffffffffffffffffffffffffffffffff160217905550610472806100606000396000f30060806040526004361061006d576000357c0100000000000000000000000000000000000000000000000000000000900463ffffffff16806312065fe0146100da57806383197ef0146101055780638da5cb5b1461011c578063cf0deba914610173578063f5074f411461018a575b7f81d2c188629cc4a1c694d285150cb5fa3dde3157a2684460d3ac7a1e331f61643334604051808373ffffffffffffffffffffffffffffffffffffffff1673ffffffffffffffffffffffffffffffffffffffff1681526020018281526020019250505060405180910390a1005b3480156100e657600080fd5b506100ef6101cd565b6040518082815260200191505060405180910390f35b34801561011157600080fd5b5061011a6101ec565b005b34801561012857600080fd5b50610131610281565b604051808273ffffffffffffffffffffffffffffffffffffffff1673ffffffffffffffffffffffffffffffffffffffff16815260200191505060405180910390f35b34801561017f57600080fd5b506101886102a6565b005b34801561019657600080fd5b506101cb600480360381019080803573ffffffffffffffffffffffffffffffffffffffff1690602001909291905050506103d2565b005b60003073ffffffffffffffffffffffffffffffffffffffff1631905090565b6000809054906101000a900473ffffffffffffffffffffffffffffffffffffffff1673ffffffffffffffffffffffffffffffffffffffff163373ffffffffffffffffffffffffffffffffffffffff1614151561024757600080fd5b6000809054906101000a900473ffffffffffffffffffffffffffffffffffffffff1673ffffffffffffffffffffffffffffffffffffffff16ff5b6000809054906101000a900473ffffffffffffffffffffffffffffffffffffffff1681565b60008060009054906101000a900473ffffffffffffffffffffffffffffffffffffffff1673ffffffffffffffffffffffffffffffffffffffff163373ffffffffffffffffffffffffffffffffffffffff1614151561030357600080fd5b3073ffffffffffffffffffffffffffffffffffffffff163190503373ffffffffffffffffffffffffffffffffffffffff166108fc829081150290604051600060405180830381858888f19350505050158015610363573d6000803e3d6000fd5b507fe0e5873eb9d996d2ab087b071a9a50522121c02b43308c8728c06739f52b3f873382604051808373ffffffffffffffffffffffffffffffffffffffff1673ffffffffffffffffffffffffffffffffffffffff1681526020018281526020019250505060405180910390a150565b6000809054906101000a900473ffffffffffffffffffffffffffffffffffffffff1673ffffffffffffffffffffffffffffffffffffffff163373ffffffffffffffffffffffffffffffffffffffff1614151561042d57600080fd5b8073ffffffffffffffffffffffffffffffffffffffff16ff00a165627a7a72305820df7fbe1fcce8c33ab2cdcfac721c9cdf0be045228108ad7e3c2ffa10af65656a0029",
  "source": "pragma solidity ^0.4.24;\n\ncontract Ownable {\n\n    address public owner;\n\n    constructor() public {\n        owner = msg.sender;\n    }\n\n    modifier onlyOwner() {\n        require(msg.sender == owner);\n        _;\n    }\n}\n\ncontract Destructible is Ownable {\n\n    constructor() public payable { }\n\n    function destroy() onlyOwner public {\n        selfdestruct(owner);\n    }\n\n    function destroyAndSend(address _recipient) onlyOwner public {\n        selfdestruct(_recipient);\n    }\n}\n\ncontract Escrow is Destructible {\n\n    event LogReceivedFunds(address sender, uint amount);\n    event LogReturnedFunds(address recipient, uint amount);\n\n    constructor() public { }\n\n    function() public payable {\n        emit LogReceivedFunds(msg.sender, msg.value);\n    }\n\n    function getBalance() public view returns (uint256) {\n        return address(this).balance;\n    }\n\n    function refundBalance() public onlyOwner {\n        uint256 balance = address(this).balance;\n        msg.sender.transfer(balance);\n        emit LogReturnedFunds(msg.sender, balance);\n    }\n}",
  "sourcePath": "/Users/paulrberg/Documents/DLT/eth/contractz/contracts/Escrow.sol",
  "compiler": {
    "name": "solc",
    "version": "0.4.24+commit.e67f0147.Emscripten.clang"
  },
  "schemaVersion": "2.0.1",
  "updatedAt": "2018-07-29T14:57:38.643Z"
}