{
  "contractName": "LoseYourEth",
  "abi": [
    {
      "constant": true,
      "inputs": [],
      "name": "redundantInt",
      "outputs": [
        {
          "name": "",
          "type": "uint256"
        }
      ],
      "payable": false,
      "stateMutability": "view",
      "type": "function"
    },
    {
      "inputs": [],
      "payable": false,
      "stateMutability": "nonpayable",
      "type": "constructor"
    },
    {
      "payable": true,
      "stateMutability": "payable",
      "type": "fallback"
    }
  ],
  "bytecode": "0x6080604052348015600f57600080fd5b506049600081905550609b806100266000396000f300608060405260043610603f576000357c0100000000000000000000000000000000000000000000000000000000900463ffffffff1680637128a9a0146041575b005b348015604c57600080fd5b5060536069565b6040518082815260200191505060405180910390f35b600054815600a165627a7a72305820a70639aa9df3b4152ab260984d725458343561ff1b2986ea9711b9ba6c1dbdff0029",
  "source": "pragma solidity ^0.4.24;\n\ncontract LoseYourEth {\n\n    uint256 public redundantInt;\n\n    constructor() public {\n        redundantInt = 73;\n    }\n\n    function() public payable {}\n}",
  "sourcePath": "/Users/paul/Documents/DLT/eth/truffle/paulcoin/contracts/LoseYourEth.sol",
  "compiler": {
    "name": "solc",
    "version": "0.4.24+commit.e67f0147.Emscripten.clang"
  },
  "schemaVersion": "2.0.1",
  "updatedAt": "2018-07-27T23:40:01.103Z"
}