{
  "contractName": "Note",
  "abi": [
    {
      "constant": true,
      "inputs": [],
      "name": "value",
      "outputs": [
        {
          "name": "",
          "type": "uint256"
        }
      ],
      "payable": false,
      "stateMutability": "view",
      "type": "function"
    },
    {
      "constant": true,
      "inputs": [],
      "name": "owner",
      "outputs": [
        {
          "name": "",
          "type": "address"
        }
      ],
      "payable": false,
      "stateMutability": "view",
      "type": "function"
    },
    {
      "inputs": [],
      "payable": false,
      "stateMutability": "nonpayable",
      "type": "constructor"
    },
    {
      "constant": false,
      "inputs": [
        {
          "name": "_value",
          "type": "uint256"
        }
      ],
      "name": "addValue",
      "outputs": [],
      "payable": false,
      "stateMutability": "nonpayable",
      "type": "function"
    },
    {
      "constant": false,
      "inputs": [
        {
          "name": "_value",
          "type": "uint256"
        },
        {
          "name": "_owner",
          "type": "address"
        }
      ],
      "name": "addNote",
      "outputs": [],
      "payable": false,
      "stateMutability": "nonpayable",
      "type": "function"
    }
  ],
  "bytecode": "0x608060405234801561001057600080fd5b50336000806101000a81548173ffffffffffffffffffffffffffffffffffffffff021916908373ffffffffffffffffffffffffffffffffffffffff16021790555061020f806100606000396000f300608060405260043610610062576000357c0100000000000000000000000000000000000000000000000000000000900463ffffffff1680632b41c97b146100675780633fa4f245146100b45780635b9af12b146100df5780638da5cb5b1461010c575b600080fd5b34801561007357600080fd5b506100b260048036038101908080359060200190929190803573ffffffffffffffffffffffffffffffffffffffff169060200190929190505050610163565b005b3480156100c057600080fd5b506100c96101ae565b6040518082815260200191505060405180910390f35b3480156100eb57600080fd5b5061010a600480360381019080803590602001909291905050506101b4565b005b34801561011857600080fd5b506101216101be565b604051808273ffffffffffffffffffffffffffffffffffffffff1673ffffffffffffffffffffffffffffffffffffffff16815260200191505060405180910390f35b81600181905550806000806101000a81548173ffffffffffffffffffffffffffffffffffffffff021916908373ffffffffffffffffffffffffffffffffffffffff1602179055505050565b60015481565b8060018190555050565b6000809054906101000a900473ffffffffffffffffffffffffffffffffffffffff16815600a165627a7a723058200c6a1c6c17698b800e11176ab0f06628527772e73b7293a4d6307e8c97a385120029",
  "source": "pragma solidity ^0.4.24;\n\ncontract Note {\n\n    address public owner;\n    uint256 public value;\n\n    constructor() public {\n        owner = msg.sender;\n    }\n\n    function addValue(uint256 _value) {\n        value = _value;\n    }\n\n    function addNote(uint _value, address _owner) public {\n        value = _value;\n        owner = _owner;\n    }\n}",
  "sourcePath": "/Users/paulrberg/Documents/DLT/eth/contractz/contracts/Note.sol",
  "compiler": {
    "name": "solc",
    "version": "0.4.24+commit.e67f0147.Emscripten.clang"
  },
  "schemaVersion": "2.0.1",
  "updatedAt": "2018-08-08T13:31:49.278Z"
}