{
  "contractName": "Stream",
  "abi": [
    {
      "constant": true,
      "inputs": [],
      "name": "active",
      "outputs": [
        {
          "name": "",
          "type": "bool"
        }
      ],
      "payable": false,
      "stateMutability": "view",
      "type": "function"
    },
    {
      "constant": true,
      "inputs": [],
      "name": "payer",
      "outputs": [
        {
          "name": "",
          "type": "address"
        }
      ],
      "payable": false,
      "stateMutability": "view",
      "type": "function"
    },
    {
      "constant": true,
      "inputs": [],
      "name": "startBlock",
      "outputs": [
        {
          "name": "",
          "type": "uint256"
        }
      ],
      "payable": false,
      "stateMutability": "view",
      "type": "function"
    },
    {
      "constant": true,
      "inputs": [],
      "name": "payee",
      "outputs": [
        {
          "name": "",
          "type": "address"
        }
      ],
      "payable": false,
      "stateMutability": "view",
      "type": "function"
    },
    {
      "constant": true,
      "inputs": [],
      "name": "pricePerUnit",
      "outputs": [
        {
          "name": "",
          "type": "uint256"
        }
      ],
      "payable": false,
      "stateMutability": "view",
      "type": "function"
    },
    {
      "inputs": [
        {
          "name": "_payee",
          "type": "address"
        }
      ],
      "payable": false,
      "stateMutability": "nonpayable",
      "type": "constructor"
    },
    {
      "anonymous": false,
      "inputs": [
        {
          "indexed": false,
          "name": "payer",
          "type": "address"
        },
        {
          "indexed": false,
          "name": "payee",
          "type": "address"
        },
        {
          "indexed": false,
          "name": "pricePerUnit",
          "type": "uint256"
        }
      ],
      "name": "StreamStarted",
      "type": "event"
    },
    {
      "anonymous": false,
      "inputs": [
        {
          "indexed": false,
          "name": "payer",
          "type": "address"
        },
        {
          "indexed": false,
          "name": "payee",
          "type": "address"
        },
        {
          "indexed": false,
          "name": "funds",
          "type": "uint256"
        }
      ],
      "name": "StreamEnd",
      "type": "event"
    },
    {
      "constant": true,
      "inputs": [],
      "name": "getCurrentBilling",
      "outputs": [
        {
          "name": "",
          "type": "uint256"
        }
      ],
      "payable": false,
      "stateMutability": "view",
      "type": "function"
    },
    {
      "constant": false,
      "inputs": [
        {
          "name": "_pricePerUnit",
          "type": "uint256"
        }
      ],
      "name": "start",
      "outputs": [],
      "payable": false,
      "stateMutability": "nonpayable",
      "type": "function"
    },
    {
      "constant": false,
      "inputs": [],
      "name": "end",
      "outputs": [],
      "payable": false,
      "stateMutability": "nonpayable",
      "type": "function"
    },
    {
      "constant": false,
      "inputs": [],
      "name": "kill",
      "outputs": [],
      "payable": false,
      "stateMutability": "nonpayable",
      "type": "function"
    }
  ],
  "bytecode": "0x60806040526000600160146101000a81548160ff02191690831515021790555034801561002b57600080fd5b506040516020806107b083398101806040528101908080519060200190929190505050336000806101000a81548173ffffffffffffffffffffffffffffffffffffffff021916908373ffffffffffffffffffffffffffffffffffffffff16021790555080600160006101000a81548173ffffffffffffffffffffffffffffffffffffffff021916908373ffffffffffffffffffffffffffffffffffffffff160217905550506106d1806100df6000396000f300608060405260043610610099576000357c0100000000000000000000000000000000000000000000000000000000900463ffffffff16806302fb0c5e1461009e57806308bd0bdf146100cd578063123119cd146100f857806341c0e1b51461014f57806348cd4cb11461016657806395805dad14610191578063ae90b213146101be578063e66825c314610215578063efbe1c1c14610240575b600080fd5b3480156100aa57600080fd5b506100b3610257565b604051808215151515815260200191505060405180910390f35b3480156100d957600080fd5b506100e261026a565b6040518082815260200191505060405180910390f35b34801561010457600080fd5b5061010d610290565b604051808273ffffffffffffffffffffffffffffffffffffffff1673ffffffffffffffffffffffffffffffffffffffff16815260200191505060405180910390f35b34801561015b57600080fd5b506101646102b5565b005b34801561017257600080fd5b5061017b61034a565b6040518082815260200191505060405180910390f35b34801561019d57600080fd5b506101bc60048036038101908080359060200190929190505050610350565b005b3480156101ca57600080fd5b506101d36104dc565b604051808273ffffffffffffffffffffffffffffffffffffffff1673ffffffffffffffffffffffffffffffffffffffff16815260200191505060405180910390f35b34801561022157600080fd5b5061022a610502565b6040518082815260200191505060405180910390f35b34801561024c57600080fd5b50610255610508565b005b600160149054906101000a900460ff1681565b600080439050600254811015151561028157600080fd5b60035460025482030291505090565b6000809054906101000a900473ffffffffffffffffffffffffffffffffffffffff1681565b6000809054906101000a900473ffffffffffffffffffffffffffffffffffffffff1673ffffffffffffffffffffffffffffffffffffffff163373ffffffffffffffffffffffffffffffffffffffff1614151561031057600080fd5b6000809054906101000a900473ffffffffffffffffffffffffffffffffffffffff1673ffffffffffffffffffffffffffffffffffffffff16ff5b60025481565b60001515600160149054906101000a900460ff16151514151561037257600080fd5b6000809054906101000a900473ffffffffffffffffffffffffffffffffffffffff1673ffffffffffffffffffffffffffffffffffffffff163373ffffffffffffffffffffffffffffffffffffffff161415156103cd57600080fd5b806003819055504360028190555060018060146101000a81548160ff0219169083151502179055507f72ca55c210460630e0c131d5e7a4e033f51b2ec840af1c39f5cc58755d6295076000809054906101000a900473ffffffffffffffffffffffffffffffffffffffff16600160009054906101000a900473ffffffffffffffffffffffffffffffffffffffff16600354604051808473ffffffffffffffffffffffffffffffffffffffff1673ffffffffffffffffffffffffffffffffffffffff1681526020018373ffffffffffffffffffffffffffffffffffffffff1673ffffffffffffffffffffffffffffffffffffffff168152602001828152602001935050505060405180910390a150565b600160009054906101000a900473ffffffffffffffffffffffffffffffffffffffff1681565b60035481565b60008060011515600160149054906101000a900460ff16151514151561052d57600080fd5b4391506003546002548303029050600160009054906101000a900473ffffffffffffffffffffffffffffffffffffffff1673ffffffffffffffffffffffffffffffffffffffff166108fc829081150290604051600060405180830381858888f193505050501580156105a3573d6000803e3d6000fd5b506000600160146101000a81548160ff0219169083151502179055507f72ca55c210460630e0c131d5e7a4e033f51b2ec840af1c39f5cc58755d6295076000809054906101000a900473ffffffffffffffffffffffffffffffffffffffff16600160009054906101000a900473ffffffffffffffffffffffffffffffffffffffff1683604051808473ffffffffffffffffffffffffffffffffffffffff1673ffffffffffffffffffffffffffffffffffffffff1681526020018373ffffffffffffffffffffffffffffffffffffffff1673ffffffffffffffffffffffffffffffffffffffff168152602001828152602001935050505060405180910390a150505600a165627a7a72305820d6912443e6a6ed9679a7f8aa14279ae20492a9df0a56e8e6f6926a46eeb298c50029",
  "source": "pragma solidity ^0.4.24;\n\ncontract Stream {\n\n    address public payer;\n    address public payee;\n\n    bool public active = false;\n\n    uint256 public startBlock;\n//    uint256 public endBlock;\n    uint256 public pricePerUnit;\n\n    event StreamStarted(address payer, address payee, uint256 pricePerUnit);\n    event StreamEnd(address payer, address payee, uint256 funds);\n\n    constructor(address _payee) public {\n        payer = msg.sender;\n        payee = _payee;\n    }\n\n    // Modifiers\n    modifier onlyPayer() {\n        require(msg.sender == payer);\n        _;\n    }\n\n    modifier onlyInvolvedParties() {\n        require(msg.sender == payer || msg.sender == payee);\n        _;\n    }\n\n    modifier isStarted() {\n        require(active == true);\n        _;\n    }\n\n    modifier isNotStarted() {\n        require(active == false);\n        _;\n    }\n\n    // View\n    function getCurrentBilling() public view returns (uint256) {\n        uint256 endBlock = block.number;\n        require(endBlock >= startBlock);\n        return (endBlock - startBlock) * pricePerUnit;\n    }\n\n    // State\n    function start(uint256 _pricePerUnit) public isNotStarted onlyPayer {\n        pricePerUnit = _pricePerUnit;\n        startBlock = block.number;\n        active = true;\n        emit StreamStarted(payer, payee, pricePerUnit);\n    }\n\n    function end() public isStarted {\n        uint256 endBlock = block.number;\n        uint256 funds = (endBlock - startBlock) * pricePerUnit;\n        payee.transfer(funds);\n        active = false;\n        emit StreamStarted(payer, payee, funds);\n    }\n\n    // Destroy\n    function kill() public onlyPayer {\n        selfdestruct(payer);\n    }\n}\n",
  "sourcePath": "/Users/paulrberg/Documents/DLT/eth/contractz/contracts/Stream.sol",
  "compiler": {
    "name": "solc",
    "version": "0.4.24+commit.e67f0147.Emscripten.clang"
  },
  "schemaVersion": "2.0.1",
  "updatedAt": "2018-08-08T13:31:45.494Z"
}